:020000040800F2
:10000000D806002029020008C914000819130008A6
:10001000C5140008830400087917000800000000D8
:10002000000000000000000000000000A51600080D
:100030008704000800000000CD140008A71600087F
:10004000430200084302000843020008430200087C
:10005000430200084302000843020008430200086C
:10006000430200084302000843020008430200085C
:10007000430200084302000843020008430200084C
:10008000430200084302000843020008430200083C
:10009000430200084302000843020008430200082C
:1000A000430200084302000843020008430200081C
:1000B000430200084302000843020008430200080C
:1000C00043020008430200084302000843020008FC
:1000D00043020008430200084302000843020008EC
:1000E00043020008430200084302000843020008DC
:1000F00043020008430200084302000843020008CC
:1001000043020008430200084302000843020008BB
:1001100043020008430200084302000843020008AB
:10012000430200084302000843020008430200089B
:10013000430200084302000843020008430200088B
:10014000430200084302000843020008430200087B
:10015000430200084302000843020008430200086B
:10016000430200084302000843020008430200085B
:100170004302000843020008430200080000000098
:10018000430200084302000800F002F800F03CF8C7
:100190000AA090E8000C82448344AAF10107DA45E2
:1001A00001D100F031F8AFF2090EBAE80F0013F0F8
:1001B000010F18BFFB1A43F001031847D0190000C4
:1001C000F0190000103A24BF78C878C1FAD8520755
:1001D00024BF30C830C144BF04680C6070470000C1
:1001E0000023002400250026103A28BF78C1FBD840
:1001F000520728BF30C148BF0B6070471FB501F0E0
:100200009FFC1FBD10B510BD00F001F91146FFF7AE
:10021000F5FF01F0CFFA00F01FF903B4FFF7F2FF8A
:1002200003BC00F027F9000009488047094800474F
:10023000FEE7FEE7FEE7FEE7FEE7FEE7FEE7FEE796
:10024000FEE7FEE704480549054A064B70470000F3
:100250006517000889010008D8000020D806002092
:10026000D8020020D802002053EA020C00F0698076
:100270002DE9F04B4FF00006002B1FBFB3FA83F5BA
:1002800003FA05F424FA05F65E4012BF1643B2FAEB
:1002900082F502FA05F4C5F120051EBF22FA05FC1D
:1002A00044EA0C04203556EA044C4FEA144418BFC3
:1002B000641C4FF000084FF00009904271EB030CF2
:1002C00039D3002919BFB1FA81F701FA07F6B0FA5C
:1002D00080F700FA07F6C7F120071EBF20FA07FCD7
:1002E00046EA0C062037B6FBF4FCA7EB0507103FE7
:1002F00007F01F0BCBF120060CFA0BFB2CFA06F6CD
:1003000044BFB3460026202FA4BF5E464FF0000B2B
:100310005BEA060C08BF4FF0010B19EB0B09ABFBB6
:10032000027C48EB0608C01B06FB02CC0BFB03CC8F
:1003300071EB0C01C1E70B46024641464846BDE859
:10034000F08B13B54FF000004FF00001AFF30080C9
:10035000BDE81C40704710B5203AC0F00B80B1E8F2
:100360001850203AA0E81850B1E81850A0E81850EA
:10037000BFF4F5AF5FEA027C24BFB1E81850A0E8F3
:10038000185044BF18C918C0BDE810405FEA827C0D
:1003900024BF51F8043B40F8043B08BF7047D20724
:1003A00028BF31F8023B48BF11F8012B28BF20F8C5
:1003B000023B48BF00F8012B70474FF0000200B528
:1003C000134694469646203922BFA0E80C50A0E878
:1003D0000C50B1F12001BFF4F7AF090728BFA0E826
:1003E0000C5048BF0CC05DF804EB890028BF40F8F2
:1003F000042B08BF704748BF20F8022B11F0804F34
:1004000018BF00F8012B704770477047704775465A
:1004100000F02CF8AE4605006946534620F0070070
:10042000854618B020B5FFF70DFFBDE820404FF01E
:1004300000064FF000074FF000084FF0000B21F0CE
:100440000701AC46ACE8C009ACE8C009ACE8C0099B
:10045000ACE8C0098D46704710B50446AFF3008084
:100460002046BDE81040FFF7D8BE000000487047A6
:100470007400002001491820ABBEFEE726000200F0
:10048000704700BFFEE7704772B600BFFEE700008E
:1004900070B5044600F010F906462546681C10B1F8
:1004A00004480078054400BF00F006F9801BA8420C
:1004B000FAD370BD14000020F8B502460B460025A3
:1004C000002400200021D6E0012606FA01F51E686E
:1004D00006EA0504AC4274D11E7906F00306012E2B
:1004E00004D01E7906F00306022E13D190684F0047
:1004F0000326BE40B0434F00DE68BE4030439060EC
:10050000506801268E40B0431E79C6F300168E4017
:10051000304350601E7906F00306032E09D0D068E0
:100520004F000326BE40B0434F009E68BE4030439C
:10053000D0601E7906F00306022E13D1CF0802F117
:10054000200656F827004E07F70E0F26BE40B04390
:100550004F07FF0E1E69BE403043CF0802F1200650
:1005600046F8270010684F000326BE40B0431E79AE
:1005700006F003064F00BE40304310605E6806F48C
:100580004036002E76D000BF002600963C4E3668DE
:1005900046F480463A4F3E603E46366806F4804652
:1005A000009600BF00BF374E8F0856F827008E0711
:1005B000370F0F26BE40B043334EB24202D1002661
:1005C00024E057E0314EB24201D101261EE0304E08
:1005D000B24201D1022619E02E4EB24201D10326C9
:1005E00014E02D4EB24201D104260FE02B4EB24250
:1005F00001D105260AE02A4EB24201D1062605E0C5
:10060000284EB24201D1072600E008268F073F0F8F
:10061000BE4030431B4E8F0846F82700224E3068FC
:10062000A0435E6806F4801606B120431E4E30607B
:10063000361D3068A0435E6806F4001606B12043FC
:10064000194E361D3060184E361F3068A0435E6864
:1006500006F4003606B12043134E361F3060361FB5
:100660003068A0435E6806F4803606B120430E4E23
:10067000083E3060491C1029FFF426AFF8BD000089
:1006800044380240083801400000024000040240A3
:1006900000080240000C024000100240001402401A
:1006A00000180240001C0240083C01400AB1816170
:1006B00001E00B0483617047014800687047000047
:1006C0000C000020034800680349097808440149E8
:1006D000086070470C0000201400002010B50D4881
:1006E000006840F400700B4908600846006840F458
:1006F000806008600846006840F48070086003204D
:1007000000F092F80F2000F007F800F02BF800201E
:1007100010BD0000003C024070B504460E48007851
:100720004FF47A71B1FBF0F00C490968B1FBF0F5B8
:10073000284600F0D7FD08B1012070BD102C07D26B
:1007400000222146501E00F031F80548046001E007
:100750000120F2E70020F0E714000020180000203C
:100760001000002008B500BF002000900E4800686F
:1007700040F480400C4908600846006800F480405E
:10078000009000BF00BF00BF00200090081F00685D
:1007900040F08050091F08600846006800F0805053
:1007A000009000BF00BF08BD443802402DE9F05F53
:1007B00080460D461646002700F0E0FF0746394602
:1007C0002A46334601F00700C0F1070ABAF1040FC8
:1007D00002D94FF0040A01E0C0F1070AD14600F146
:1007E000040ABAF1070F02D24FF0000A01E0A0F1AB
:1007F000030AD4464FF0010A0AFA09FAAAF1010ADB
:100800000AEA020A0AFA0CFA4FF0010B0BFA0CFB87
:10081000ABF1010B0BEA030B4AEA0B0421464046FD
:1008200000F0B4FFBDE8F09F00BF00F00702064BE8
:1008300019684FF6FF031940044B0B4343EA0221AA
:10084000014B196000BF70470CED00E00000FA0595
:1008500070B504460D460CB9012070BD58480068BB
:1008600000F00700A84209D255490D7008460068FB
:1008700000F00700A84201D00120EEE7207800F048
:10088000020002281DD1207800F00400042805D1C0
:100890004C48006840F4E0504A490860207800F075
:1008A0000800082805D14748006840F460404549E1
:1008B00008604448006820F0F000A16808434149FE
:1008C0000860207800F00100A8B36068012807D113
:1008D0003C4808380068C0F34040B8B90120BCE784
:1008E0006068022802D06068032807D135480838BC
:1008F0000068C0F3406048B90120AEE731480838CD
:100900000068C0F3400008B90120A6E72D48006840
:1009100020F00300616808432A490860FFF7CCFE15
:10092000064609E0FFF7C8FE801B41F28831884285
:1009300002D9032091E707E02248006800F00C008C
:100940006168B0EB810FEDD11D48006800F0070031
:10095000A84209D91A490D700846006800F007003E
:10096000A84201D0012078E7207800F00400042894
:1009700007D11448006820F4E050E16808431149A9
:100980000860207800F00800082808D10D480068A9
:1009900020F46040216940EAC1000A49086000F083
:1009A00019F808490968C1F30311074A515CC840A6
:1009B0000649086006480068FFF7AEFE00204CE7D5
:1009C000003C024008380240721B0008180000205A
:1009D000100000202DE9F047002400250026A14644
:1009E0002548006800F00C0020B1042805D0082834
:1009F0003AD105E0DFF8849039E0DFF8849036E002
:100A00001D48001F006800F03F041B48001F0068DD
:100A100000F4800078B11A481749091F0968C1F32A
:100A20008811A0FB01700146224600233846FFF7DB
:100A30001BFC05460EE011480F49091F0968C1F368
:100A40008811A0FB01700146224600233846FFF7BB
:100A50000BFC05460848001F0068C0F30140401C1D
:100A60004600B5FBF6F902E0DFF8109000BF00BFCA
:100A70004846BDE8F0870000083802400024F40032
:100A800000127A00F8B504460CB90120F8BD2078B0
:100A900000F00100002874D0F948006800F00C0054
:100AA00004280DD0F648006800F00C00082813D187
:100AB000F348001F006800F48000B0F5800F0BD1F0
:100AC000EF4808380068C0F34040002859D06068FB
:100AD000002856D10120D9E700BF6068B0F5803FFB
:100AE00008D1E7480838006840F48030E449083904
:100AF00008601EE06068B0F5A02F0DD1E04808380E
:100B0000006840F48020DE49083908600846006823
:100B100040F4803008600CE0D9480838006820F4C0
:100B20008030D749083908600846006820F48020E2
:100B3000086000BF606890B1FFF7BEFD054606E0A3
:100B4000FFF7BAFD401B642801D903209EE7CC487B
:100B500008380068C0F340400028F1D011E0FFF7EA
:100B6000ABFD054606E0FFF7A7FD401B642801D951
:100B700003208BE7C24808380068C0F340400028D3
:100B8000F1D1207800F0020002285FD1BC48006853
:100B900000F00C0058B1BA48006800F00C000828BA
:100BA0001CD1B748001F006800F48000B0B9B448F9
:100BB00008380068C0F3400020B1E068012801D087
:100BC000012063E7AE480838006820F0F80021698A
:100BD00040EAC100AA490839086037E0E06800B37C
:100BE0000120A8490860FFF767FD054606E0FFF70A
:100BF00063FD401B022801D9032047E7A0480838BD
:100C00000068C0F340000028F1D09D480838006813
:100C100020F0F800216940EAC100994908390860CC
:100C200014E0002097490860FFF746FD054606E0FE
:100C3000FFF742FD401B022801D9032026E7904818
:100C400008380068C0F340000028F1D1207800F097
:100C5000080008282CD16069A8B101208A490860E1
:100C6000FFF72AFD054606E0FFF726FD401B022898
:100C700001D903200AE782486C300068C0F34000C5
:100C80000028F1D014E000207F490860FFF714FD30
:100C9000054606E0FFF710FD401B022801D903209E
:100CA000F4E677486C300068C0F340000028F1D1CA
:100CB000207800F00400042870D1002770483830F4
:100CC000006800F0805090B900BF002000906C4890
:100CD0003830006840F08050694938310860084673
:100CE000006800F08050009000BF00BF01276748F7
:100CF000006800F48070B0B96448006840F4807007
:100D000062490860FFF7D8FC054606E0FFF7D4FC0F
:100D1000401B022801D90320B8E65C48006800F4B3
:100D200080700028F2D000BFA068012808D1544884
:100D30006830006840F001005149683108601DE0EA
:100D4000A06805280DD14E486830006840F00400C6
:100D50004B49683108600846006840F001000860AF
:100D60000CE047486830006820F0010044496831D1
:100D700008600846006820F00400086000BFA06812
:100D8000A8B1FFF799FC054609E0FFF795FC401B69
:100D900041F28831884202D9032077E626E03848BC
:100DA00068300068C0F340000028EED013E0FFF781
:100DB00083FC054608E0FFF77FFC401B41F28831C9
:100DC000884201D9032061E62D4868300068C0F3ED
:100DD00040000028EFD1012F07D1294838300068A2
:100DE00020F0805026493831086000BFA0690028F3
:100DF00045D02348006800F00C0008285DD0A069A9
:100E0000022845D100201F490866FFF755FC05461A
:100E100006E0FFF751FC401B022801D9032035E60C
:100E2000174808380068C0F340600028F1D1D4E9C1
:100E300007010843616A40EA81110122A06AC2EBFE
:100E4000500041EA00412C20005D41EA00600C495D
:100E5000091F086001200B490866FFF72DFC0546B5
:100E600006E0FFF729FC401B022801D903200DE60C
:100E7000034808380068C0F340600028F1D049E01A
:100E80000838024000004742800E47420070004090
:100E9000002021490866FFF70FFC054606E0FFF732
:100EA0000BFC401B022801D90320EFE51B4800681A
:100EB000C0F340600028F2D12CE0A069012800D1E5
:100EC000E4E51648001D0668A069012820D006F454
:100ED0008001E06981421BD106F03F01206A814216
:100EE00016D147F6C0703040616AB0EB811F0FD158
:100EF00006F440310122A06AC2EB5000B1EB004F72
:100F000006D106F070612C20005DB1EB006F01D0BE
:100F10000120BBE50020B9E500004742003802404F
:100F200010B504460CB9012010BD606A38B960687C
:100F3000B0F5827F00D105E00021E16102E00021EF
:100F4000216161610021A16294F8510028B900205B
:100F500084F85000204600F047F8022084F8510041
:100F60002068006820F0400021680860A08800F434
:100F70008270218901F404410843A18901F40061D0
:100F80000843217C01F002010843217D01F00101A9
:100F90000843218B01F400710843217F01F03801DF
:100FA00008432021095D01F080010843218D01F4EF
:100FB00000510843216808600421A06901EA10403B
:100FC00094F8241001F0100108432168486020685B
:100FD000C06920F400602168C861002060650120BC
:100FE00084F8510000209FE710B586B00446142114
:100FF00001A8FFF7E2F91B49206888422FD100BF02
:10100000002000901848006840F48050164908609D
:101010000846006800F48050009000BF00BF00BF89
:101020000020009010481438006840F002000E497B
:10103000143908600846006800F00200009000BF04
:1010400000BF38200190022002900020039003206E
:1010500004900520059001A90448FFF72DFA06B079
:1010600010BD00000030014044380240000402403E
:101070002DE9FE4F04460F4690461D460C9E01206A
:101080000190FFF719FB814694F851B06068029017
:10109000AA46BBF1010F0BD00298B0F5827F04D1B4
:1010A000A06810B9BBF1040F02D00220BDE8FE8F8A
:1010B0001FB1B8F1000F00D00DB90120F6E700BF55
:1010C00094F85000012801D10220EFE7012084F8B4
:1010D000500000BF94F85100042802D0052084F885
:1010E000510000206065C4F83880E587A587276334
:1010F0007A480760E586A586002020646064206841
:10110000006800F04000402805D02068006840F0EA
:10111000400021680860E068B0F5006F60D1606849
:1011200010B1BAF1010F13D1206B00882168C8609B
:101130006A48006800882168C860684800680088BC
:1011400067490880206B801C2063E08E401EE0868B
:101150003FE02068806800F00200022814D1E08E91
:1011600090B1019801280FD1206B00882168C860D8
:10117000206B00885A490880206B801C2063E08E19
:10118000401EE086002001902068806800F0010089
:1011900068B1E08F58B12068C068A16B0880A06B6F
:1011A000801CA063E08F401EE08701200190FFF7C4
:1011B00083FAA0EB0900B0420BD3701C48B10120A8
:1011C00084F8510000BF002084F8500000BF0320C5
:1011D0006CE7E08E0028BCD1E08F0028B9D152E046
:1011E000606810B1BAF1010F09D1206B0078216855
:1011F0000873206B401C2063E08E401EE0863CE0BC
:101200002068806800F00200022810D1E08E70B1E2
:10121000019801280BD1206B007821680873206B9E
:10122000401C2063E08E401EE08600200190206874
:10123000806800F0010068B1E08F58B12068C06894
:10124000A16B0870A06B401CA063E08F401EE0877C
:1012500001200190FFF730FAA0EB0900B04201D362
:10126000701C00B94EB9012084F8510000BF002065
:1012700084F8500000BF032018E7E08E0028BFD19B
:10128000E08F0028BCD14A463146204600F05AF98A
:1012900040B12020606500BF002084F8500000BFEE
:1012A000012003E7A06850B900BF0020009020682B
:1012B000C068009020688068009000BF00BF0120D7
:1012C00084F8510000BF002084F8500000BF606D1A
:1012D00008B10120EAE60020E8E60000080000204E
:1012E0000400002070B504462546681EB0F1807FDA
:1012F00001D301200FE0681E4FF0E02148610F216B
:101300004FF0FF3000F042FA00204FF0E0218861FA
:1013100007200861002070BD00BFFEE700B587B060
:10132000142102A8FFF749F800BF002001904D48A2
:10133000006840F004004B4908600846006800F06F
:101340000400019000BF00BF00BF002001900846CC
:10135000006840F0800008600846006800F08000E7
:10136000019000BF00BF00BF002001900846006848
:1013700040F0080008600846006800F0080001908E
:1013800000BF00BF00BF002001900846006840F089
:10139000010008600846006800F00100019000BFED
:1013A00000BF00BF002001900846006840F0020026
:1013B00008600846006800F00200019000BF00BF0E
:1013C00000BF002001900846006840F0100008604F
:1013D0000846006800F01000019000BF00BF002226
:1013E0004FF440512048FFF761F900224FF40061AB
:1013F0001E48FFF75BF900224FF400411C48FFF73D
:1014000055F94FF4405002900120039000200490C1
:10141000059002A91448FFF74FF84FF400600290BE
:101420000120039000200490059002A90F48FFF7C7
:1014300043F84FF4004002900120039000200490F4
:10144000059002A90A48FFF737F8012002904FF4EF
:10145000041003900020049002A90648FFF72CF81E
:1014600007B000BD3038024000080240000C0240C6
:10147000000002400010024010B5104810490860FA
:101480004FF48270486000210D4881604FF4006184
:10149000C16000210161012141614902816128216E
:1014A000C161802101620021416281620A21C16221
:1014B000FFF736FD08B1FEF7E7FF10BD0030014031
:1014C0001C00002000BFFEE700BFFEE7704701469A
:1014D000002002E04908421CD0B219B101F001021B
:1014E000002AF7D070470000FEB504460D4644EAD6
:1014F0000520029000200190002600224FF40041B8
:101500000E48FFF7D3F8701E012301AA02A900902C
:101510000B48FFF7ADFDBDF80400000ABDF804104C
:10152000C9B240EA01260122D1030448FFF7BEF800
:101530000A20FEF7ADFF3046FEBD0000000002406D
:101540001C0000207CB504460E4615463346012299
:1015500002212046009500F039F828B1606D40F076
:101560002000606503207CBD164800681821B0FB90
:10157000F1F01549B0FBF1F04FF47A714843019056
:101580006068B0F5827F0DD133460022802120466D
:10159000009500F01BF898B1606D40F02000606588
:1015A0000320E0E700BF019800B908E00198401E61
:1015B000019020688068C0F3C0100028F3D100BFFC
:1015C0000020D0E71800002040420F002DE9F84F1E
:1015D00004460D4690461E46DDF82890FFF76CF84D
:1015E000A0EB0900371AFFF767F882462C4800681D
:1015F000C0F3CB307843009045E0701C002842D007
:10160000FFF75AF8A0EB0A00B84200D2A7BB206847
:10161000406820F0E000216848606068B0F5827F93
:101620000DD1A068B0F5004F03D0A068B0F5806F71
:1016300005D12068006820F0400021680860A06A99
:10164000B0F5005F0DD100BF2068006820F40050A5
:10165000216808602068006840F400502168086034
:1016600000BF012084F8510000BF002084F8500022
:1016700000BF0320BDE8F88FFFE7009800B90027FE
:101680000098401E0090206880682840A84201D140
:10169000012000E000204045AFD10020EAE7000033
:1016A00018000020704710B5FFF70CF810BD0000BF
:1016B00000B593B0302107A8FEF77FFE142102A8E1
:1016C000FEF77BFE00BF002001902448006840F038
:1016D0008050224908600846006800F08050019060
:1016E00000BF00BF00BF002001901D48006840F40B
:1016F00080401B4908600846006800F48040019063
:1017000000BF00BF012007900004089002200D9048
:1017100041050E9104210F91A821109102211191F0
:101720000421129107A8FFF7ADF908B1FEF7ACFE4E
:101730000F20029002200390002004904FF4A0504C
:1017400005904FF480500690052102A8FFF780F81D
:1017500008B1FEF799FE13B000BD0000403802400A
:10176000007000400348006840F4700001490860C0
:101770007047000088ED00E000BFFEE70248006807
:10178000C0F30220704700000CED00E010B5002807
:1017900004DB0A07130E054A135406E00A07140E69
:1017A000034A00F00F031B1FD45410BD00E400E0F7
:1017B00018ED00E008B5FEF791FFFFF779FFFFF79E
:1017C000ADFDFFF759FE00F06BF800909DF80100A9
:1017D00028B1012251031148FEF768FF05E00022FD
:1017E0004FF400510D48FEF761FF012211030B4831
:1017F000FEF75CFF04220121002000F013F80090A6
:101800000122D1020648FEF751FF05E000F006F97B
:1018100000906420FEF73CFEF8E70000000802405C
:10182000000C02402DE9F84306460F469046202062
:10183000FFF74DFE06FA00F91020FFF748FE07FA01
:1018400000F049EA00090720FFF741FE08FA00F01E
:1018500049EA000909F0FF04254685EA251585EACD
:10186000A50585EA650505F00100002801DD44F0C5
:10187000800400222146032000F002F900909DF828
:10188000010008B905480470BDF8001008469DF82D
:10189000021040EA0140BDE8F8830000000000208B
:1018A0002DE9F04F95B0062500200B902E4686EAD4
:1018B000261686EAA60686EA660606F001000028D5
:1018C00001DD45F080054A48057000200021C2086E
:1018D00011924FEA4019002210920F92CA080E92FC
:1018E0004FEA411A00220D920C922822414901A888
:1018F000FEF731FD8DF8055000F086F890B100201C
:101900008DF8500001208DF8510000208DF8520014
:10191000BDF8501008469DF8521040EA014015B03D
:10192000BDE8F08F7E2000F067F883460BF0FF07DC
:10193000F020FFF7CCFD07F0F00141FA00F807F0C6
:101940000F001390B8F1030F02D0B8F1070F01D1C7
:10195000012000E000201290129850B902208DF86A
:101960005100BDF8501008469DF8521040EA014061
:10197000D5E700230322C021012000F0A4F8009045
:101980006420FEF785FD002418E001AA02EB440262
:10199000517801AA12F81400002200F071F8149096
:1019A0009DF85100002807DDBDF8501008469DF84D
:1019B000521040EA0140B2E7601CC4B201A810F81E
:1019C00014000028E1D101A800EB44004078002871
:1019D000DBD18DF850008DF851008DF85200BDF824
:1019E000501008469DF8521040EA014097E7000069
:1019F000000000204C1B000810B5044604F07F00D6
:101A00000021FFF771FD10BD10B50122D10302487E
:101A1000FEF74CFE002010BD000002401CB5032064
:101A2000FFF7EAFFC0B21549097888420ED10022BB
:101A300012480178032000F023F80090BDF8001050
:101A400008469DF8021040EA01401CBD03208DF8B5
:101A50000400FFF7D1FFC0B20849097848408DF86B
:101A60000500064800788DF80600BDF80410084609
:101A70009DF8061040EA0140E7E700000000002062
:101A80002DE9F84304460D46164644F080002946E9
:101A9000FFF72AFD80460EB1A6F800808DF80040C1
:101AA0002046FFF7A9FF0746F8B268408DF801000D
:101AB0008DF80250BDF8001008469DF8021040EA6B
:101AC0000140BDE8F8832DE9F84F05460C4616465F
:101AD0001F462846FFF790FF81460FB1A7F80090F8
:101AE00009F0FF0828EA04082046FFF7F0FC06FA90
:101AF00000F040EA080000F0FF0845F08000414691
:101B0000FFF7F2FC8DF800502046FFF7E0FC06FAE4
:101B100000F0C0B28DF802002846FFF76DFF00EA22
:101B2000040A9DF8020080EA0A008DF80100BDF861
:101B3000001008469DF8021040EA0140BDE8F88F09
:101B40004FF04070E1EE100A7047000003000138CA
:101B500002000420050006000707080009000C0029
:101B60000D00100014111511180019001C001700A9
:101B7000000000000000000000000102030406074E
:101B8000080900000000010203040000AC1B00086B
:101B9000000000201C000000C4010008C81B000851
:101BA0001C000020BC060000E0010008000000004E
:101BB0000000000000000000000000001000000015
:081BC000010000000024F40004
:040000050800018965
:00000001FF
